{
  "contractName": "SecureBlocksTokenFaucet",
  "abi": [
    {
      "constant": true,
      "inputs": [],
      "name": "name",
      "outputs": [
        {
          "name": "",
          "type": "string"
        }
      ],
      "payable": false,
      "stateMutability": "view",
      "type": "function"
    },
    {
      "constant": true,
      "inputs": [],
      "name": "decimals",
      "outputs": [
        {
          "name": "",
          "type": "uint8"
        }
      ],
      "payable": false,
      "stateMutability": "view",
      "type": "function"
    },
    {
      "constant": true,
      "inputs": [],
      "name": "symbol",
      "outputs": [
        {
          "name": "",
          "type": "string"
        }
      ],
      "payable": false,
      "stateMutability": "view",
      "type": "function"
    },
    {
      "anonymous": false,
      "inputs": [
        {
          "indexed": true,
          "name": "_from",
          "type": "address"
        },
        {
          "indexed": true,
          "name": "_to",
          "type": "address"
        },
        {
          "indexed": false,
          "name": "_value",
          "type": "uint256"
        }
      ],
      "name": "Transfer",
      "type": "event"
    },
    {
      "anonymous": false,
      "inputs": [
        {
          "indexed": true,
          "name": "_owner",
          "type": "address"
        },
        {
          "indexed": true,
          "name": "_spender",
          "type": "address"
        },
        {
          "indexed": false,
          "name": "_value",
          "type": "uint256"
        }
      ],
      "name": "Approval",
      "type": "event"
    },
    {
      "constant": false,
      "inputs": [
        {
          "name": "_amount",
          "type": "uint256"
        },
        {
          "name": "_recipient",
          "type": "address"
        }
      ],
      "name": "getTokens",
      "outputs": [
        {
          "name": "",
          "type": "bool"
        }
      ],
      "payable": false,
      "stateMutability": "nonpayable",
      "type": "function"
    },
    {
      "constant": false,
      "inputs": [
        {
          "name": "_to",
          "type": "address"
        },
        {
          "name": "_value",
          "type": "uint256"
        }
      ],
      "name": "transfer",
      "outputs": [
        {
          "name": "",
          "type": "bool"
        }
      ],
      "payable": false,
      "stateMutability": "nonpayable",
      "type": "function"
    },
    {
      "constant": false,
      "inputs": [
        {
          "name": "_from",
          "type": "address"
        },
        {
          "name": "_to",
          "type": "address"
        },
        {
          "name": "_value",
          "type": "uint256"
        }
      ],
      "name": "transferFrom",
      "outputs": [
        {
          "name": "",
          "type": "bool"
        }
      ],
      "payable": false,
      "stateMutability": "nonpayable",
      "type": "function"
    },
    {
      "constant": true,
      "inputs": [
        {
          "name": "_owner",
          "type": "address"
        }
      ],
      "name": "balanceOf",
      "outputs": [
        {
          "name": "balance",
          "type": "uint256"
        }
      ],
      "payable": false,
      "stateMutability": "view",
      "type": "function"
    },
    {
      "constant": false,
      "inputs": [
        {
          "name": "_spender",
          "type": "address"
        },
        {
          "name": "_value",
          "type": "uint256"
        }
      ],
      "name": "approve",
      "outputs": [
        {
          "name": "",
          "type": "bool"
        }
      ],
      "payable": false,
      "stateMutability": "nonpayable",
      "type": "function"
    },
    {
      "constant": true,
      "inputs": [
        {
          "name": "_owner",
          "type": "address"
        },
        {
          "name": "_spender",
          "type": "address"
        }
      ],
      "name": "allowance",
      "outputs": [
        {
          "name": "remaining",
          "type": "uint256"
        }
      ],
      "payable": false,
      "stateMutability": "view",
      "type": "function"
    },
    {
      "constant": true,
      "inputs": [],
      "name": "totalSupply",
      "outputs": [
        {
          "name": "",
          "type": "uint256"
        }
      ],
      "payable": false,
      "stateMutability": "view",
      "type": "function"
    }
  ],
  "bytecode": "0x6060604052620f424060005560408051908101604052600c81527f536563757265426c6f636b730000000000000000000000000000000000000000602082015260019080516100529291602001906100b7565b506002805460ff191660121790556040805190810160405260038082527f53424c000000000000000000000000000000000000000000000000000000000060208301529080516100a69291602001906100b7565b5034156100b257600080fd5b610152565b828054600181600116156101000203166002900490600052602060002090601f016020900481019282601f106100f857805160ff1916838001178555610125565b82800160010185558215610125579182015b8281111561012557825182559160200191906001019061010a565b50610131929150610135565b5090565b61014f91905b80821115610131576000815560010161013b565b90565b610701806101616000396000f3006060604052600436106100a35763ffffffff7c010000000000000000000000000000000000000000000000000000000060003504166306fdde0381146100a8578063095ea7b31461013257806318160ddd1461016857806323b872dd1461018d5780632570e31e146101b5578063313ce567146101d757806370a082311461020057806395d89b411461021f578063a9059cbb14610232578063dd62ed3e14610254575b600080fd5b34156100b357600080fd5b6100bb610279565b60405160208082528190810183818151815260200191508051906020019080838360005b838110156100f75780820151838201526020016100df565b50505050905090810190601f1680156101245780820380516001836020036101000a031916815260200191505b509250505060405180910390f35b341561013d57600080fd5b610154600160a060020a0360043516602435610317565b604051901515815260200160405180910390f35b341561017357600080fd5b61017b610383565b60405190815260200160405180910390f35b341561019857600080fd5b610154600160a060020a0360043581169060243516604435610389565b34156101c057600080fd5b610154600435600160a060020a036024351661050b565b34156101e257600080fd5b6101ea610534565b60405160ff909116815260200160405180910390f35b341561020b57600080fd5b61017b600160a060020a036004351661053d565b341561022a57600080fd5b6100bb610558565b341561023d57600080fd5b610154600160a060020a03600435166024356105c3565b341561025f57600080fd5b61017b600160a060020a0360043581169060243516610682565b60018054600181600116156101000203166002900480601f01602080910402602001604051908101604052809291908181526020018280546001816001161561010002031660029004801561030f5780601f106102e45761010080835404028352916020019161030f565b820191906000526020600020905b8154815290600101906020018083116102f257829003601f168201915b505050505081565b600160a060020a03338116600081815260056020908152604080832094871680845294909152808220859055909291907f8c5be1e5ebec7d5bd14f71427d1e84f3dd0314c0f7b2291e5b200ac8c7c3b9259085905190815260200160405180910390a350600192915050565b60005490565b6000600160a060020a03831615156103a057600080fd5b600160a060020a0384166000908152600460205260409020548211156103c557600080fd5b600160a060020a03808516600090815260056020908152604080832033909416835292905220548211156103f857600080fd5b600160a060020a038416600090815260046020526040902054610421908363ffffffff6106ad16565b600160a060020a038086166000908152600460205260408082209390935590851681522054610456908363ffffffff6106bf16565b600160a060020a0380851660009081526004602090815260408083209490945587831682526005815283822033909316825291909152205461049e908363ffffffff6106ad16565b600160a060020a03808616600081815260056020908152604080832033861684529091529081902093909355908516917fddf252ad1be2c89b69c2b068fc378daa952ba7f163c4a11628f55a4df523b3ef9085905190815260200160405180910390a35060019392505050565b600160a060020a0316600090815260046020526040812080548301905580549091019055600190565b60025460ff1681565b600160a060020a031660009081526004602052604090205490565b60038054600181600116156101000203166002900480601f01602080910402602001604051908101604052809291908181526020018280546001816001161561010002031660029004801561030f5780601f106102e45761010080835404028352916020019161030f565b600160a060020a0333166000908152600460205260408120546105ec908363ffffffff6106ad16565b600160a060020a033381166000908152600460205260408082209390935590851681522054610621908363ffffffff6106bf16565b600160a060020a0380851660008181526004602052604090819020939093559133909116907fddf252ad1be2c89b69c2b068fc378daa952ba7f163c4a11628f55a4df523b3ef9085905190815260200160405180910390a350600192915050565b600160a060020a03918216600090815260056020908152604080832093909416825291909152205490565b6000828211156106b957fe5b50900390565b6000828201838110156106ce57fe5b93925050505600a165627a7a72305820e5f4ebf704ef706470748e53ddb516082d82cfb770618d200c91ea7a1748c0990029",
  "source": "pragma solidity ^0.4.18;\n\nimport 'zeppelin-solidity/contracts/math/SafeMath.sol';\n\n/*\n SBL token faucet is only used on testnet for testing purposes\n !!!! NOT INTENDED TO BE USED ON MAINNET !!!\n*/\n\ncontract SecureBlocksTokenFaucet {\n\n    using SafeMath for uint256;\n    uint256 totalSupply_ = 1000000;\n    string public name = \"SecureBlocks\";\n    uint8 public decimals = 18;\n    string public symbol = \"SBL\";\n\n    mapping(address => uint256) balances;\n    mapping(address => mapping(address => uint256)) allowed;\n\n    event Transfer(address indexed _from, address indexed _to, uint256 _value);\n    event Approval(address indexed _owner, address indexed _spender, uint256 _value);\n\n    /* Token faucet - Not part of the ERC20 standard */\n    function getTokens(uint256 _amount, address _recipient) public returns (bool) {\n        balances[_recipient] += _amount;\n        totalSupply_ += _amount;\n        return true;\n    }\n\n    /**\n     * @dev send `_value` token to `_to` from `msg.sender`\n     * @param _to The address of the recipient\n     * @param _value The amount of token to be transferred\n     * @return Whether the transfer was successful or not\n     */\n    function transfer(address _to, uint256 _value) public returns (bool) {\n        balances[msg.sender] = balances[msg.sender].sub(_value);\n        balances[_to] = balances[_to].add(_value);\n        Transfer(msg.sender, _to, _value);\n        return true;\n    }\n\n    /**\n     * @dev send `_value` token to `_to` from `_from` on the condition it is approved by `_from`\n     * @param _from The address of the sender\n     * @param _to The address of the recipient\n     * @param _value The amount of token to be transferred\n     * @return Whether the transfer was successful or not\n     */\n    function transferFrom(address _from, address _to, uint256 _value) public returns (bool) {\n      require(_to != address(0));\n      require(_value <= balances[_from]);\n      require(_value <= allowed[_from][msg.sender]);\n\n      balances[_from] = balances[_from].sub(_value);\n      balances[_to] = balances[_to].add(_value);\n      allowed[_from][msg.sender] = allowed[_from][msg.sender].sub(_value);\n      Transfer(_from, _to, _value);\n      return true;\n    }\n\n    /**\n     * @dev `balanceOf` function to get the balance of token holders\n     * @param _owner The address from which the balance will be retrieved\n     * @return The balance\n     */\n    function balanceOf(address _owner) public view returns (uint256 balance) {\n        return balances[_owner];\n    }\n\n    /**\n     * @dev `msg.sender` approves `_spender` to spend `_value` tokens\n     * @param _spender The address of the account able to transfer the tokens\n     * @param _value The amount of tokens to be approved for transfer\n     * @return Whether the approval was successful or not\n     */\n    function approve(address _spender, uint256 _value) public returns (bool) {\n        allowed[msg.sender][_spender] = _value;\n        Approval(msg.sender, _spender, _value);\n        return true;\n    }\n\n    /**\n     * @param _owner The address of the account owning tokens\n     * @param _spender The address of the account able to transfer the tokens\n     * @return Amount of remaining tokens allowed to spent\n     */\n    function allowance(address _owner, address _spender) public view returns (uint256 remaining) {\n        return allowed[_owner][_spender];\n    }\n\n    function totalSupply() public view returns (uint256) {\n      return totalSupply_;\n    }\n\n}",
  "sourcePath": "/Users/satyamagrawal/Repositories/truffle-tool/contracts/Token.sol",
  "compiler": {
    "name": "solc",
    "version": "0.4.19+commit.c4cbbb05.Emscripten.clang"
  },
  "schemaVersion": "2.0.0",
  "updatedAt": "2018-03-30T10:04:37.772Z"
}